{
  "_format": "hh3-artifact-1",
  "contractName": "SafeSend",
  "sourceName": "contracts/SafeSend.sol",
  "abi": [
    {
      "inputs": [],
      "stateMutability": "nonpayable",
      "type": "constructor"
    },
    {
      "inputs": [],
      "name": "AccessControlBadConfirmation",
      "type": "error"
    },
    {
      "inputs": [
        {
          "internalType": "address",
          "name": "account",
          "type": "address"
        },
        {
          "internalType": "bytes32",
          "name": "neededRole",
          "type": "bytes32"
        }
      ],
      "name": "AccessControlUnauthorizedAccount",
      "type": "error"
    },
    {
      "inputs": [
        {
          "internalType": "address",
          "name": "target",
          "type": "address"
        }
      ],
      "name": "AddressEmptyCode",
      "type": "error"
    },
    {
      "inputs": [],
      "name": "CancellationWindowClosed",
      "type": "error"
    },
    {
      "inputs": [
        {
          "internalType": "address",
          "name": "implementation",
          "type": "address"
        }
      ],
      "name": "ERC1967InvalidImplementation",
      "type": "error"
    },
    {
      "inputs": [],
      "name": "ERC1967NonPayable",
      "type": "error"
    },
    {
      "inputs": [],
      "name": "EnforcedPause",
      "type": "error"
    },
    {
      "inputs": [],
      "name": "ExpectedPause",
      "type": "error"
    },
    {
      "inputs": [],
      "name": "FailedCall",
      "type": "error"
    },
    {
      "inputs": [],
      "name": "InvalidAddress",
      "type": "error"
    },
    {
      "inputs": [],
      "name": "InvalidAmount",
      "type": "error"
    },
    {
      "inputs": [],
      "name": "InvalidFeeBps",
      "type": "error"
    },
    {
      "inputs": [],
      "name": "InvalidInitialization",
      "type": "error"
    },
    {
      "inputs": [],
      "name": "InvalidReleaseTime",
      "type": "error"
    },
    {
      "inputs": [],
      "name": "NotInitializing",
      "type": "error"
    },
    {
      "inputs": [],
      "name": "ReentrancyGuardReentrantCall",
      "type": "error"
    },
    {
      "inputs": [],
      "name": "ReleaseTimeNotReached",
      "type": "error"
    },
    {
      "inputs": [
        {
          "internalType": "address",
          "name": "token",
          "type": "address"
        }
      ],
      "name": "SafeERC20FailedOperation",
      "type": "error"
    },
    {
      "inputs": [],
      "name": "TransferNotFound",
      "type": "error"
    },
    {
      "inputs": [],
      "name": "TransferNotPending",
      "type": "error"
    },
    {
      "inputs": [],
      "name": "UUPSUnauthorizedCallContext",
      "type": "error"
    },
    {
      "inputs": [
        {
          "internalType": "bytes32",
          "name": "slot",
          "type": "bytes32"
        }
      ],
      "name": "UUPSUnsupportedProxiableUUID",
      "type": "error"
    },
    {
      "inputs": [],
      "name": "UnauthorizedSender",
      "type": "error"
    },
    {
      "anonymous": false,
      "inputs": [
        {
          "indexed": true,
          "internalType": "address",
          "name": "feeRecipient",
          "type": "address"
        },
        {
          "indexed": false,
          "internalType": "uint256",
          "name": "feeBps",
          "type": "uint256"
        }
      ],
      "name": "FeeConfigUpdated",
      "type": "event"
    },
    {
      "anonymous": false,
      "inputs": [
        {
          "indexed": false,
          "internalType": "uint64",
          "name": "version",
          "type": "uint64"
        }
      ],
      "name": "Initialized",
      "type": "event"
    },
    {
      "anonymous": false,
      "inputs": [
        {
          "indexed": false,
          "internalType": "address",
          "name": "account",
          "type": "address"
        }
      ],
      "name": "Paused",
      "type": "event"
    },
    {
      "anonymous": false,
      "inputs": [
        {
          "indexed": true,
          "internalType": "bytes32",
          "name": "role",
          "type": "bytes32"
        },
        {
          "indexed": true,
          "internalType": "bytes32",
          "name": "previousAdminRole",
          "type": "bytes32"
        },
        {
          "indexed": true,
          "internalType": "bytes32",
          "name": "newAdminRole",
          "type": "bytes32"
        }
      ],
      "name": "RoleAdminChanged",
      "type": "event"
    },
    {
      "anonymous": false,
      "inputs": [
        {
          "indexed": true,
          "internalType": "bytes32",
          "name": "role",
          "type": "bytes32"
        },
        {
          "indexed": true,
          "internalType": "address",
          "name": "account",
          "type": "address"
        },
        {
          "indexed": true,
          "internalType": "address",
          "name": "sender",
          "type": "address"
        }
      ],
      "name": "RoleGranted",
      "type": "event"
    },
    {
      "anonymous": false,
      "inputs": [
        {
          "indexed": true,
          "internalType": "bytes32",
          "name": "role",
          "type": "bytes32"
        },
        {
          "indexed": true,
          "internalType": "address",
          "name": "account",
          "type": "address"
        },
        {
          "indexed": true,
          "internalType": "address",
          "name": "sender",
          "type": "address"
        }
      ],
      "name": "RoleRevoked",
      "type": "event"
    },
    {
      "anonymous": false,
      "inputs": [
        {
          "indexed": true,
          "internalType": "uint256",
          "name": "transferId",
          "type": "uint256"
        },
        {
          "indexed": true,
          "internalType": "address",
          "name": "sender",
          "type": "address"
        }
      ],
      "name": "SafeSendCancelled",
      "type": "event"
    },
    {
      "anonymous": false,
      "inputs": [
        {
          "indexed": true,
          "internalType": "uint256",
          "name": "transferId",
          "type": "uint256"
        },
        {
          "indexed": true,
          "internalType": "address",
          "name": "sender",
          "type": "address"
        },
        {
          "indexed": true,
          "internalType": "address",
          "name": "recipient",
          "type": "address"
        },
        {
          "indexed": false,
          "internalType": "address",
          "name": "token",
          "type": "address"
        },
        {
          "indexed": false,
          "internalType": "uint256",
          "name": "amount",
          "type": "uint256"
        },
        {
          "indexed": false,
          "internalType": "uint256",
          "name": "feeAmount",
          "type": "uint256"
        },
        {
          "indexed": false,
          "internalType": "uint256",
          "name": "releaseTime",
          "type": "uint256"
        }
      ],
      "name": "SafeSendCreated",
      "type": "event"
    },
    {
      "anonymous": false,
      "inputs": [
        {
          "indexed": true,
          "internalType": "uint256",
          "name": "transferId",
          "type": "uint256"
        },
        {
          "indexed": true,
          "internalType": "address",
          "name": "recipient",
          "type": "address"
        },
        {
          "indexed": false,
          "internalType": "uint256",
          "name": "recipientAmount",
          "type": "uint256"
        },
        {
          "indexed": false,
          "internalType": "uint256",
          "name": "feeAmount",
          "type": "uint256"
        }
      ],
      "name": "SafeSendReleased",
      "type": "event"
    },
    {
      "anonymous": false,
      "inputs": [
        {
          "indexed": false,
          "internalType": "address",
          "name": "account",
          "type": "address"
        }
      ],
      "name": "Unpaused",
      "type": "event"
    },
    {
      "anonymous": false,
      "inputs": [
        {
          "indexed": true,
          "internalType": "address",
          "name": "implementation",
          "type": "address"
        }
      ],
      "name": "Upgraded",
      "type": "event"
    },
    {
      "inputs": [],
      "name": "BPS_DENOMINATOR",
      "outputs": [
        {
          "internalType": "uint256",
          "name": "",
          "type": "uint256"
        }
      ],
      "stateMutability": "view",
      "type": "function"
    },
    {
      "inputs": [],
      "name": "DEFAULT_ADMIN_ROLE",
      "outputs": [
        {
          "internalType": "bytes32",
          "name": "",
          "type": "bytes32"
        }
      ],
      "stateMutability": "view",
      "type": "function"
    },
    {
      "inputs": [],
      "name": "FEE_MANAGER_ROLE",
      "outputs": [
        {
          "internalType": "bytes32",
          "name": "",
          "type": "bytes32"
        }
      ],
      "stateMutability": "view",
      "type": "function"
    },
    {
      "inputs": [],
      "name": "PAUSER_ROLE",
      "outputs": [
        {
          "internalType": "bytes32",
          "name": "",
          "type": "bytes32"
        }
      ],
      "stateMutability": "view",
      "type": "function"
    },
    {
      "inputs": [],
      "name": "UPGRADER_ROLE",
      "outputs": [
        {
          "internalType": "bytes32",
          "name": "",
          "type": "bytes32"
        }
      ],
      "stateMutability": "view",
      "type": "function"
    },
    {
      "inputs": [],
      "name": "UPGRADE_INTERFACE_VERSION",
      "outputs": [
        {
          "internalType": "string",
          "name": "",
          "type": "string"
        }
      ],
      "stateMutability": "view",
      "type": "function"
    },
    {
      "inputs": [],
      "name": "_feeBps",
      "outputs": [
        {
          "internalType": "uint256",
          "name": "",
          "type": "uint256"
        }
      ],
      "stateMutability": "view",
      "type": "function"
    },
    {
      "inputs": [],
      "name": "_feeRecipient",
      "outputs": [
        {
          "internalType": "address",
          "name": "",
          "type": "address"
        }
      ],
      "stateMutability": "view",
      "type": "function"
    },
    {
      "inputs": [],
      "name": "_nextTransferId",
      "outputs": [
        {
          "internalType": "uint256",
          "name": "",
          "type": "uint256"
        }
      ],
      "stateMutability": "view",
      "type": "function"
    },
    {
      "inputs": [
        {
          "internalType": "uint256",
          "name": "transferId",
          "type": "uint256"
        }
      ],
      "name": "cancelSafeSend",
      "outputs": [],
      "stateMutability": "nonpayable",
      "type": "function"
    },
    {
      "inputs": [
        {
          "internalType": "address",
          "name": "recipient",
          "type": "address"
        },
        {
          "internalType": "address",
          "name": "token",
          "type": "address"
        },
        {
          "internalType": "uint256",
          "name": "amount",
          "type": "uint256"
        },
        {
          "internalType": "uint256",
          "name": "releaseTime",
          "type": "uint256"
        }
      ],
      "name": "createSafeSend",
      "outputs": [
        {
          "internalType": "uint256",
          "name": "transferId",
          "type": "uint256"
        }
      ],
      "stateMutability": "nonpayable",
      "type": "function"
    },
    {
      "inputs": [
        {
          "internalType": "bytes32",
          "name": "role",
          "type": "bytes32"
        }
      ],
      "name": "getRoleAdmin",
      "outputs": [
        {
          "internalType": "bytes32",
          "name": "",
          "type": "bytes32"
        }
      ],
      "stateMutability": "view",
      "type": "function"
    },
    {
      "inputs": [
        {
          "internalType": "uint256",
          "name": "transferId",
          "type": "uint256"
        }
      ],
      "name": "getSafeSend",
      "outputs": [
        {
          "components": [
            {
              "internalType": "address",
              "name": "sender",
              "type": "address"
            },
            {
              "internalType": "address",
              "name": "recipient",
              "type": "address"
            },
            {
              "internalType": "address",
              "name": "token",
              "type": "address"
            },
            {
              "internalType": "uint256",
              "name": "amount",
              "type": "uint256"
            },
            {
              "internalType": "uint256",
              "name": "feeAmount",
              "type": "uint256"
            },
            {
              "internalType": "uint256",
              "name": "releaseTime",
              "type": "uint256"
            },
            {
              "internalType": "enum SafeSend.SafeSendStatus",
              "name": "status",
              "type": "uint8"
            }
          ],
          "internalType": "struct SafeSend.SafeSendTransfer",
          "name": "",
          "type": "tuple"
        }
      ],
      "stateMutability": "view",
      "type": "function"
    },
    {
      "inputs": [
        {
          "internalType": "bytes32",
          "name": "role",
          "type": "bytes32"
        },
        {
          "internalType": "address",
          "name": "account",
          "type": "address"
        }
      ],
      "name": "grantRole",
      "outputs": [],
      "stateMutability": "nonpayable",
      "type": "function"
    },
    {
      "inputs": [
        {
          "internalType": "bytes32",
          "name": "role",
          "type": "bytes32"
        },
        {
          "internalType": "address",
          "name": "account",
          "type": "address"
        }
      ],
      "name": "hasRole",
      "outputs": [
        {
          "internalType": "bool",
          "name": "",
          "type": "bool"
        }
      ],
      "stateMutability": "view",
      "type": "function"
    },
    {
      "inputs": [
        {
          "internalType": "address",
          "name": "admin",
          "type": "address"
        },
        {
          "internalType": "address",
          "name": "feeRecipient_",
          "type": "address"
        },
        {
          "internalType": "uint256",
          "name": "feeBps_",
          "type": "uint256"
        }
      ],
      "name": "initialize",
      "outputs": [],
      "stateMutability": "nonpayable",
      "type": "function"
    },
    {
      "inputs": [],
      "name": "pause",
      "outputs": [],
      "stateMutability": "nonpayable",
      "type": "function"
    },
    {
      "inputs": [],
      "name": "paused",
      "outputs": [
        {
          "internalType": "bool",
          "name": "",
          "type": "bool"
        }
      ],
      "stateMutability": "view",
      "type": "function"
    },
    {
      "inputs": [
        {
          "internalType": "uint256",
          "name": "amount",
          "type": "uint256"
        }
      ],
      "name": "previewFee",
      "outputs": [
        {
          "internalType": "uint256",
          "name": "",
          "type": "uint256"
        }
      ],
      "stateMutability": "view",
      "type": "function"
    },
    {
      "inputs": [],
      "name": "proxiableUUID",
      "outputs": [
        {
          "internalType": "bytes32",
          "name": "",
          "type": "bytes32"
        }
      ],
      "stateMutability": "view",
      "type": "function"
    },
    {
      "inputs": [
        {
          "internalType": "uint256",
          "name": "transferId",
          "type": "uint256"
        }
      ],
      "name": "releaseSafeSend",
      "outputs": [],
      "stateMutability": "nonpayable",
      "type": "function"
    },
    {
      "inputs": [
        {
          "internalType": "bytes32",
          "name": "role",
          "type": "bytes32"
        },
        {
          "internalType": "address",
          "name": "callerConfirmation",
          "type": "address"
        }
      ],
      "name": "renounceRole",
      "outputs": [],
      "stateMutability": "nonpayable",
      "type": "function"
    },
    {
      "inputs": [
        {
          "internalType": "bytes32",
          "name": "role",
          "type": "bytes32"
        },
        {
          "internalType": "address",
          "name": "account",
          "type": "address"
        }
      ],
      "name": "revokeRole",
      "outputs": [],
      "stateMutability": "nonpayable",
      "type": "function"
    },
    {
      "inputs": [
        {
          "internalType": "address",
          "name": "feeRecipient_",
          "type": "address"
        },
        {
          "internalType": "uint256",
          "name": "feeBps_",
          "type": "uint256"
        }
      ],
      "name": "setFeeConfig",
      "outputs": [],
      "stateMutability": "nonpayable",
      "type": "function"
    },
    {
      "inputs": [
        {
          "internalType": "bytes4",
          "name": "interfaceId",
          "type": "bytes4"
        }
      ],
      "name": "supportsInterface",
      "outputs": [
        {
          "internalType": "bool",
          "name": "",
          "type": "bool"
        }
      ],
      "stateMutability": "view",
      "type": "function"
    },
    {
      "inputs": [],
      "name": "unpause",
      "outputs": [],
      "stateMutability": "nonpayable",
      "type": "function"
    },
    {
      "inputs": [
        {
          "internalType": "address",
          "name": "newImplementation",
          "type": "address"
        },
        {
          "internalType": "bytes",
          "name": "data",
          "type": "bytes"
        }
      ],
      "name": "upgradeToAndCall",
      "outputs": [],
      "stateMutability": "payable",
      "type": "function"
    }
  ],
  "bytecode": "0x60a060405230608052348015610013575f5ffd5b5060017f9b779b17422d0df92223018b32b4d1fa46e071723d6817e2486d003becc55f0055610040610045565b6100f7565b7ff0c57e16840df040f15088dc2f81fe391c3923bec73e23a9662efc9c229c6a00805468010000000000000000900460ff16156100955760405163f92ee8a960e01b815260040160405180910390fd5b80546001600160401b03908116146100f45780546001600160401b0319166001600160401b0390811782556040519081527fc7f505b2f371ae2175ee4913f4499e1f2633a7b5936321eed1cdaeb6115181d29060200160405180910390a15b50565b608051611a7661011d5f395f818161108b015281816110b401526112150152611a765ff3fe608060405260043610610195575f3560e01c806364847a0e116100e7578063c78b7f7d11610087578063e1a4521811610062578063e1a452181461049f578063e63ab1e9146104b4578063f137b2f4146104e7578063f72c0d8b146104fc575f5ffd5b8063c78b7f7d1461044c578063d547741f14610461578063e07a311114610480575f5ffd5b806391d14854116100c257806391d14854146103a6578063a217fddf146103c5578063a342f238146103d8578063ad3cb1cc1461040f575f5ffd5b806364847a0e14610354578063814e82ec146103735780638456cb5914610392575f5ffd5b806335e856f21161015257806344e4e4d21161012d57806344e4e4d2146102de5780634f1ef2861461030a57806352d1902d1461031d5780635c975abb14610331575f5ffd5b806335e856f21461028c57806336568abe146102ab5780633f4ba83a146102ca575f5ffd5b806301ffc9a71461019957806305db2f41146101cd5780630659e9121461020e5780631794bb3c1461022f578063248a9ca31461024e5780632f2ff15d1461026d575b5f5ffd5b3480156101a4575f5ffd5b506101b86101b3366004611674565b61052f565b60405190151581526020015b60405180910390f35b3480156101d8575f5ffd5b506102007f6c0757dc3e6b28b2580c03fd9e96c274acf4f99d91fbec9b418fa1d70604ff1c81565b6040519081526020016101c4565b348015610219575f5ffd5b5061022d6102283660046116a2565b610565565b005b34801561023a575f5ffd5b5061022d6102493660046116cf565b610651565b348015610259575f5ffd5b506102006102683660046116a2565b61079c565b348015610278575f5ffd5b5061022d610287366004611709565b6107bc565b348015610297575f5ffd5b506102006102a63660046116a2565b6107de565b3480156102b6575f5ffd5b5061022d6102c5366004611709565b6107fa565b3480156102d5575f5ffd5b5061022d610832565b3480156102e9575f5ffd5b506102fd6102f83660046116a2565b610864565b6040516101c49190611747565b61022d6103183660046117d4565b610936565b348015610328575f5ffd5b50610200610955565b34801561033c575f5ffd5b505f516020611a015f395f51905f525460ff166101b8565b34801561035f575f5ffd5b5061022d61036e3660046116a2565b610970565b34801561037e575f5ffd5b5061020061038d366004611898565b610a97565b34801561039d575f5ffd5b5061022d610cab565b3480156103b1575f5ffd5b506101b86103c0366004611709565b610cdd565b3480156103d0575f5ffd5b506102005f81565b3480156103e3575f5ffd5b506002546103f7906001600160a01b031681565b6040516001600160a01b0390911681526020016101c4565b34801561041a575f5ffd5b5061043f604051806040016040528060058152602001640352e302e360dc1b81525081565b6040516101c491906118d7565b348015610457575f5ffd5b5061020060015481565b34801561046c575f5ffd5b5061022d61047b366004611709565b610d13565b34801561048b575f5ffd5b5061022d61049a36600461190c565b610d2f565b3480156104aa575f5ffd5b5061020061271081565b3480156104bf575f5ffd5b506102007f65d7a28e3265b37a6474929f336521b332c1681b933f6cb9f3376673440d862a81565b3480156104f2575f5ffd5b5061020060035481565b348015610507575f5ffd5b506102007f189ab7a9244df0848122154315af71fe140f3db0fe014031783b0946b8c9d2e381565b5f6001600160e01b03198216637965db0b60e01b148061055f57506301ffc9a760e01b6001600160e01b03198316145b92915050565b61056d610d63565b5f61057782610d7e565b80549091506001600160a01b031633146105a457604051630101292160e31b815260040160405180910390fd5b806005015442106105c85760405163372e563d60e21b815260040160405180910390fd5b60068101805460ff1916600290811790915581546003830154918301546105ff926001600160a01b03918216929190911690610dc8565b80546040516001600160a01b039091169083907fb214156ca3b17e3416d611730b58e59f4978814384e8875b41a357a9f4d9f196905f90a35061064e60015f516020611a215f395f51905f5255565b50565b5f61065a610e02565b805490915060ff600160401b820416159067ffffffffffffffff165f811580156106815750825b90505f8267ffffffffffffffff16600114801561069d5750303b155b9050811580156106ab575080155b156106c95760405163f92ee8a960e01b815260040160405180910390fd5b845467ffffffffffffffff1916600117855583156106f357845460ff60401b1916600160401b1785555b6106fb610e2a565b610703610e2a565b61070c88610e34565b6107168787610e5b565b6107205f89610ee0565b5061074b7f6c0757dc3e6b28b2580c03fd9e96c274acf4f99d91fbec9b418fa1d70604ff1c89610ee0565b50831561079257845460ff60401b19168555604051600181527fc7f505b2f371ae2175ee4913f4499e1f2633a7b5936321eed1cdaeb6115181d29060200160405180910390a15b5050505050505050565b5f9081525f5160206119e15f395f51905f52602052604090206001015490565b6107c58261079c565b6107ce81610f88565b6107d88383610ee0565b50505050565b5f612710600354836107f09190611948565b61055f919061195f565b6001600160a01b03811633146108235760405163334bd91960e11b815260040160405180910390fd5b61082d8282610f92565b505050565b7f65d7a28e3265b37a6474929f336521b332c1681b933f6cb9f3376673440d862a61085c81610f88565b61064e61100b565b6108a06040805160e0810182525f80825260208201819052918101829052606081018290526080810182905260a081018290529060c082015290565b6108a98261106a565b6040805160e08101825282546001600160a01b03908116825260018401548116602083015260028401541691810191909152600380830154606083015260048301546080830152600583015460a0830152600683015491929160c084019160ff9091169081111561091c5761091c611733565b600381111561092d5761092d611733565b90525092915050565b61093e611080565b61094782611124565b610951828261114e565b5050565b5f61095e61120a565b505f5160206119c15f395f51905f5290565b610978610d63565b5f61098282610d7e565b905080600501544210156109a95760405163a450ae7360e01b815260040160405180910390fd5b60068101805460ff191660039081179091556004820154908201545f916109cf9161197e565b600283015460048401549192506001600160a01b03169015610a0b576002546004840154610a0b916001600160a01b0384811692911690610dc8565b6001830154610a27906001600160a01b03838116911684610dc8565b600183015460048401546040516001600160a01b039092169186917f510c409d2bec31c16d73e5e8d7a30f316dc42c8681dd66678fc698c9b8f0bf9391610a7691878252602082015260400190565b60405180910390a350505061064e60015f516020611a215f395f51905f5255565b5f610aa0610d63565b610aa985610e34565b610ab284610e34565b825f03610ad25760405163162908e360e11b815260040160405180910390fd5b428211610af257604051632288301b60e11b815260040160405180910390fd5b60018054905f610b0183611991565b9190505590505f610b11846107de565b90506040518060e00160405280336001600160a01b03168152602001876001600160a01b03168152602001866001600160a01b0316815260200185815260200182815260200184815260200160016003811115610b7057610b70611733565b90525f8381526020818152604091829020835181546001600160a01b03199081166001600160a01b0392831617835592850151600180840180548616928416929092179091559385015160028301805490941691161790915560608301516003808301919091556080840151600483015560a0840151600583015560c084015160068301805493949193909260ff1990911691908490811115610c1557610c15611733565b0217905550610c329150506001600160a01b038616333087611253565b604080516001600160a01b038781168252602082018790529181018390526060810185905290871690339084907fc8bbc720fca5add42cf1c909bdbd21e83aa0632b5767621d7badd05aa1891c1d9060800160405180910390a450610ca360015f516020611a215f395f51905f5255565b949350505050565b7f65d7a28e3265b37a6474929f336521b332c1681b933f6cb9f3376673440d862a610cd581610f88565b61064e611289565b5f9182525f5160206119e15f395f51905f52602090815260408084206001600160a01b0393909316845291905290205460ff1690565b610d1c8261079c565b610d2581610f88565b6107d88383610f92565b7f6c0757dc3e6b28b2580c03fd9e96c274acf4f99d91fbec9b418fa1d70604ff1c610d5981610f88565b61082d8383610e5b565b610d6b6112d1565b60025f516020611a215f395f51905f5255565b5f610d888261106a565b90506001600682015460ff166003811115610da557610da5611733565b14610dc3576040516308cd5ef960e31b815260040160405180910390fd5b919050565b610dd58383836001611300565b61082d57604051635274afe760e01b81526001600160a01b03841660048201526024015b60405180910390fd5b5f807ff0c57e16840df040f15088dc2f81fe391c3923bec73e23a9662efc9c229c6a0061055f565b610e32611362565b565b6001600160a01b03811661064e5760405163e6c4247b60e01b815260040160405180910390fd5b610e6482610e34565b6127108110610e8657604051638bff87cf60e01b815260040160405180910390fd5b600280546001600160a01b0319166001600160a01b03841690811790915560038290556040518281527fe42708d93b95810922305119a3271ca42233da9ebe1e1e503f0e887817a32c7a9060200160405180910390a25050565b5f5f5160206119e15f395f51905f52610ef98484610cdd565b610f78575f848152602082815260408083206001600160a01b03871684529091529020805460ff19166001179055610f2e3390565b6001600160a01b0316836001600160a01b0316857f2f8788117e7eff1d82e926ec794901d17c78024a50270940304540a733656f0d60405160405180910390a4600191505061055f565b5f91505061055f565b5092915050565b61064e8133611387565b5f5f5160206119e15f395f51905f52610fab8484610cdd565b15610f78575f848152602082815260408083206001600160a01b0387168085529252808320805460ff1916905551339287917ff6391f5c32d9c69d2a47ea670b442974b53935d1edc7fd64eb21e047a839171b9190a4600191505061055f565b6110136113c0565b5f516020611a015f395f51905f52805460ff191681557f5db9ee0a495bf2e6ff9c91a7834c1ba4fdd244a5e8aa4e537bd38aeae4b073aa335b6040516001600160a01b03909116815260200160405180910390a150565b5f818152602081905260409020610dc3816113ef565b306001600160a01b037f000000000000000000000000000000000000000000000000000000000000000016148061110657507f00000000000000000000000000000000000000000000000000000000000000006001600160a01b03166110fa5f5160206119c15f395f51905f52546001600160a01b031690565b6001600160a01b031614155b15610e325760405163703e46dd60e11b815260040160405180910390fd5b7f189ab7a9244df0848122154315af71fe140f3db0fe014031783b0946b8c9d2e361095181610f88565b816001600160a01b03166352d1902d6040518163ffffffff1660e01b8152600401602060405180830381865afa9250505080156111a8575060408051601f3d908101601f191682019092526111a5918101906119a9565b60015b6111d057604051634c9c8ce360e01b81526001600160a01b0383166004820152602401610df9565b5f5160206119c15f395f51905f52811461120057604051632a87526960e21b815260048101829052602401610df9565b61082d8383611417565b306001600160a01b037f00000000000000000000000000000000000000000000000000000000000000001614610e325760405163703e46dd60e11b815260040160405180910390fd5b61126184848484600161146c565b6107d857604051635274afe760e01b81526001600160a01b0385166004820152602401610df9565b6112916114d9565b5f516020611a015f395f51905f52805460ff191660011781557f62e78cea01bee320cd4e420270b5ea74000d11b0c9f74754ebdbfc544b05a2583361104c565b5f516020611a215f395f51905f5254600203610e3257604051633ee5aeb560e01b815260040160405180910390fd5b60405163a9059cbb60e01b5f8181526001600160a01b038616600452602485905291602083604481808b5af1925060015f5114831661135657838315161561134a573d5f823e3d81fd5b5f873b113d1516831692505b60405250949350505050565b61136a611509565b610e3257604051631afcd79f60e31b815260040160405180910390fd5b6113918282610cdd565b6109515760405163e2517d3f60e01b81526001600160a01b038216600482015260248101839052604401610df9565b5f516020611a015f395f51905f525460ff16610e3257604051638dfc202b60e01b815260040160405180910390fd5b80546001600160a01b031661064e57604051632b44303360e11b815260040160405180910390fd5b61142082611522565b6040516001600160a01b038316907fbc7cd75a20ee27fd9adebab32041f755214dbc6bffa90cc0225b39da2e5c2d3b905f90a28051156114645761082d8282611585565b61095161161e565b6040516323b872dd60e01b5f8181526001600160a01b038781166004528616602452604485905291602083606481808c5af1925060015f511483166114c85783831516156114bc573d5f823e3d81fd5b5f883b113d1516831692505b604052505f60605295945050505050565b5f516020611a015f395f51905f525460ff1615610e325760405163d93c066560e01b815260040160405180910390fd5b5f611512610e02565b54600160401b900460ff16919050565b806001600160a01b03163b5f0361155757604051634c9c8ce360e01b81526001600160a01b0382166004820152602401610df9565b5f5160206119c15f395f51905f5280546001600160a01b0319166001600160a01b0392909216919091179055565b60605f611592848461163d565b90508080156115b357505f3d11806115b357505f846001600160a01b03163b115b156115c8576115c0611650565b91505061055f565b80156115f257604051639996b31560e01b81526001600160a01b0385166004820152602401610df9565b3d1561160557611600611669565b610f81565b60405163d6bda27560e01b815260040160405180910390fd5b3415610e325760405163b398979f60e01b815260040160405180910390fd5b5f5f5f835160208501865af49392505050565b6040513d81523d5f602083013e3d602001810160405290565b6040513d5f823e3d81fd5b5f60208284031215611684575f5ffd5b81356001600160e01b03198116811461169b575f5ffd5b9392505050565b5f602082840312156116b2575f5ffd5b5035919050565b80356001600160a01b0381168114610dc3575f5ffd5b5f5f5f606084860312156116e1575f5ffd5b6116ea846116b9565b92506116f8602085016116b9565b929592945050506040919091013590565b5f5f6040838503121561171a575f5ffd5b8235915061172a602084016116b9565b90509250929050565b634e487b7160e01b5f52602160045260245ffd5b81516001600160a01b03908116825260208084015182169083015260408084015190911690820152606080830151908201526080808301519082015260a0828101519082015260c082015160e0820190600481106117b357634e487b7160e01b5f52602160045260245ffd5b8060c08401525092915050565b634e487b7160e01b5f52604160045260245ffd5b5f5f604083850312156117e5575f5ffd5b6117ee836116b9565b9150602083013567ffffffffffffffff811115611809575f5ffd5b8301601f81018513611819575f5ffd5b803567ffffffffffffffff811115611833576118336117c0565b604051601f8201601f19908116603f0116810167ffffffffffffffff81118282101715611862576118626117c0565b604052818152828201602001871015611879575f5ffd5b816020840160208301375f602083830101528093505050509250929050565b5f5f5f5f608085870312156118ab575f5ffd5b6118b4856116b9565b93506118c2602086016116b9565b93969395505050506040820135916060013590565b602081525f82518060208401528060208501604085015e5f604082850101526040601f19601f83011684010191505092915050565b5f5f6040838503121561191d575f5ffd5b611926836116b9565b946020939093013593505050565b634e487b7160e01b5f52601160045260245ffd5b808202811582820484141761055f5761055f611934565b5f8261197957634e487b7160e01b5f52601260045260245ffd5b500490565b8181038181111561055f5761055f611934565b5f600182016119a2576119a2611934565b5060010190565b5f602082840312156119b9575f5ffd5b505191905056fe360894a13ba1a3210667c828492db98dca3e2076cc3735a920a3ca505d382bbc02dd7bc7dec4dceedda775e58dd541e08a116c6c53815c0bd028192f7b626800cd5ed15c6e187e77e9aee88184c21f4f2182ab5827cb3b7e07fbedcd63f033009b779b17422d0df92223018b32b4d1fa46e071723d6817e2486d003becc55f00a26469706673582212209c93293777f696f8162a7e4cf310a2757258bdb6314f4f5a5f1150d7efe8121a64736f6c634300081c0033",
  "linkReferences": {},
  "deployedLinkReferences": {},
  "immutableReferences": {
    "1400": [
      {
        "length": 32,
        "start": 4235
      },
      {
        "length": 32,
        "start": 4276
      },
      {
        "length": 32,
        "start": 4629
      }
    ]
  },
  "inputSourceName": "project/contracts/SafeSend.sol",
  "buildInfoId": "solc-0_8_28-d6fec784031943ec8734c7cc2d4867414d64a587"
}